{
  "contractName": "OrderManagement",
  "abi": [
    {
      "inputs": [
        {
          "internalType": "address",
          "name": "verifierAddress",
          "type": "address"
        }
      ],
      "stateMutability": "nonpayable",
      "type": "constructor"
    },
    {
      "anonymous": false,
      "inputs": [
        {
          "indexed": false,
          "internalType": "uint256",
          "name": "orderId",
          "type": "uint256"
        },
        {
          "indexed": false,
          "internalType": "string",
          "name": "product",
          "type": "string"
        },
        {
          "indexed": false,
          "internalType": "uint256",
          "name": "quantity",
          "type": "uint256"
        },
        {
          "indexed": false,
          "internalType": "uint256",
          "name": "totalCost",
          "type": "uint256"
        },
        {
          "indexed": false,
          "internalType": "string",
          "name": "status",
          "type": "string"
        },
        {
          "indexed": false,
          "internalType": "string",
          "name": "customerName",
          "type": "string"
        },
        {
          "indexed": false,
          "internalType": "string",
          "name": "ipfsHash",
          "type": "string"
        }
      ],
      "name": "OrderPlaced",
      "type": "event"
    },
    {
      "anonymous": false,
      "inputs": [
        {
          "indexed": false,
          "internalType": "uint256",
          "name": "orderId",
          "type": "uint256"
        },
        {
          "indexed": false,
          "internalType": "bool",
          "name": "verified",
          "type": "bool"
        }
      ],
      "name": "OrderVerified",
      "type": "event"
    },
    {
      "inputs": [],
      "name": "orderCount",
      "outputs": [
        {
          "internalType": "uint256",
          "name": "",
          "type": "uint256"
        }
      ],
      "stateMutability": "view",
      "type": "function",
      "constant": true
    },
    {
      "inputs": [
        {
          "internalType": "uint256",
          "name": "",
          "type": "uint256"
        }
      ],
      "name": "orders",
      "outputs": [
        {
          "internalType": "uint256",
          "name": "orderId",
          "type": "uint256"
        },
        {
          "internalType": "string",
          "name": "product",
          "type": "string"
        },
        {
          "internalType": "uint256",
          "name": "quantity",
          "type": "uint256"
        },
        {
          "internalType": "uint256",
          "name": "totalCost",
          "type": "uint256"
        },
        {
          "internalType": "string",
          "name": "status",
          "type": "string"
        },
        {
          "internalType": "string",
          "name": "customerName",
          "type": "string"
        },
        {
          "internalType": "address",
          "name": "customerAddress",
          "type": "address"
        },
        {
          "internalType": "string",
          "name": "ipfsHash",
          "type": "string"
        }
      ],
      "stateMutability": "view",
      "type": "function",
      "constant": true
    },
    {
      "inputs": [],
      "name": "verifier",
      "outputs": [
        {
          "internalType": "contract Verifier",
          "name": "",
          "type": "address"
        }
      ],
      "stateMutability": "view",
      "type": "function",
      "constant": true
    },
    {
      "inputs": [
        {
          "internalType": "string",
          "name": "product",
          "type": "string"
        },
        {
          "internalType": "uint256",
          "name": "quantity",
          "type": "uint256"
        },
        {
          "internalType": "uint256",
          "name": "totalCost",
          "type": "uint256"
        },
        {
          "internalType": "string",
          "name": "customerName",
          "type": "string"
        },
        {
          "internalType": "uint256[]",
          "name": "inputValues",
          "type": "uint256[]"
        },
        {
          "internalType": "string",
          "name": "ipfsHash",
          "type": "string"
        }
      ],
      "name": "placeOrder",
      "outputs": [],
      "stateMutability": "nonpayable",
      "type": "function"
    },
    {
      "inputs": [
        {
          "internalType": "uint256",
          "name": "orderId",
          "type": "uint256"
        },
        {
          "internalType": "string",
          "name": "status",
          "type": "string"
        }
      ],
      "name": "updateOrderStatus",
      "outputs": [],
      "stateMutability": "nonpayable",
      "type": "function"
    },
    {
      "inputs": [
        {
          "internalType": "uint256",
          "name": "orderId",
          "type": "uint256"
        },
        {
          "components": [
            {
              "components": [
                {
                  "internalType": "uint256",
                  "name": "X",
                  "type": "uint256"
                },
                {
                  "internalType": "uint256",
                  "name": "Y",
                  "type": "uint256"
                }
              ],
              "internalType": "struct Pairing.G1Point",
              "name": "a",
              "type": "tuple"
            },
            {
              "components": [
                {
                  "internalType": "uint256[2]",
                  "name": "X",
                  "type": "uint256[2]"
                },
                {
                  "internalType": "uint256[2]",
                  "name": "Y",
                  "type": "uint256[2]"
                }
              ],
              "internalType": "struct Pairing.G2Point",
              "name": "b",
              "type": "tuple"
            },
            {
              "components": [
                {
                  "internalType": "uint256",
                  "name": "X",
                  "type": "uint256"
                },
                {
                  "internalType": "uint256",
                  "name": "Y",
                  "type": "uint256"
                }
              ],
              "internalType": "struct Pairing.G1Point",
              "name": "c",
              "type": "tuple"
            }
          ],
          "internalType": "struct Verifier.Proof",
          "name": "proof",
          "type": "tuple"
        }
      ],
      "name": "verifyOrder",
      "outputs": [
        {
          "internalType": "bool",
          "name": "",
          "type": "bool"
        }
      ],
      "stateMutability": "nonpayable",
      "type": "function"
    },
    {
      "inputs": [
        {
          "internalType": "uint256",
          "name": "orderId",
          "type": "uint256"
        }
      ],
      "name": "getOrder",
      "outputs": [
        {
          "components": [
            {
              "internalType": "uint256",
              "name": "orderId",
              "type": "uint256"
            },
            {
              "internalType": "string",
              "name": "product",
              "type": "string"
            },
            {
              "internalType": "uint256",
              "name": "quantity",
              "type": "uint256"
            },
            {
              "internalType": "uint256",
              "name": "totalCost",
              "type": "uint256"
            },
            {
              "internalType": "string",
              "name": "status",
              "type": "string"
            },
            {
              "internalType": "string",
              "name": "customerName",
              "type": "string"
            },
            {
              "internalType": "address",
              "name": "customerAddress",
              "type": "address"
            },
            {
              "internalType": "uint256[]",
              "name": "inputValues",
              "type": "uint256[]"
            },
            {
              "internalType": "string",
              "name": "ipfsHash",
              "type": "string"
            }
          ],
          "internalType": "struct OrderManagement.Order",
          "name": "",
          "type": "tuple"
        }
      ],
      "stateMutability": "view",
      "type": "function",
      "constant": true
    }
  ],
  "bytecode": "0x608060405260006002553480156200001657600080fd5b506040516200236b3803806200236b83398181016040528101906200003c9190620000ed565b806000806101000a81548173ffffffffffffffffffffffffffffffffffffffff021916908373ffffffffffffffffffffffffffffffffffffffff160217905550506200011f565b600080fd5b600073ffffffffffffffffffffffffffffffffffffffff82169050919050565b6000620000b58262000088565b9050919050565b620000c781620000a8565b8114620000d357600080fd5b50565b600081519050620000e781620000bc565b92915050565b60006020828403121562000106576200010562000083565b5b60006200011684828501620000d6565b91505092915050565b61223c806200012f6000396000f3fe608060405234801561001057600080fd5b506004361061007d5760003560e01c80632b7ac3f31161005b5780632b7ac3f3146100ec578063319745111461010a578063a85c38ef14610126578063d09ef2411461015d5761007d565b80631186be5f14610082578063205fdde6146100b25780632453ffa8146100ce575b600080fd5b61009c600480360381019061009791906112d6565b61018d565b6040516100a99190611332565b60405180910390f35b6100cc60048036038101906100c79190611402565b6106b6565b005b6100d6610776565b6040516100e3919061146d565b60405180910390f35b6100f461077c565b6040516101019190611507565b60405180910390f35b610124600480360381019061011f91906115e5565b6107a0565b005b610140600480360381019061013b91906116e2565b610983565b6040516101549897969594939291906117af565b60405180910390f35b610177600480360381019061017291906116e2565b610c0b565b6040516101849190611a41565b60405180910390f35b6000806001600085815260200190815260200160002060405180610120016040529081600082015481526020016001820180546101c990611a92565b80601f01602080910402602001604051908101604052809291908181526020018280546101f590611a92565b80156102425780601f1061021757610100808354040283529160200191610242565b820191906000526020600020905b81548152906001019060200180831161022557829003601f168201915b50505050508152602001600282015481526020016003820154815260200160048201805461026f90611a92565b80601f016020809104026020016040519081016040528092919081815260200182805461029b90611a92565b80156102e85780601f106102bd576101008083540402835291602001916102e8565b820191906000526020600020905b8154815290600101906020018083116102cb57829003601f168201915b5050505050815260200160058201805461030190611a92565b80601f016020809104026020016040519081016040528092919081815260200182805461032d90611a92565b801561037a5780601f1061034f5761010080835404028352916020019161037a565b820191906000526020600020905b81548152906001019060200180831161035d57829003601f168201915b505050505081526020016006820160009054906101000a900473ffffffffffffffffffffffffffffffffffffffff1673ffffffffffffffffffffffffffffffffffffffff1673ffffffffffffffffffffffffffffffffffffffff1681526020016007820180548060200260200160405190810160405280929190818152602001828054801561042857602002820191906000526020600020905b815481526020019060010190808311610414575b5050505050815260200160088201805461044190611a92565b80601f016020809104026020016040519081016040528092919081815260200182805461046d90611a92565b80156104ba5780601f1061048f576101008083540402835291602001916104ba565b820191906000526020600020905b81548152906001019060200180831161049d57829003601f168201915b505050505081525050905060048160e00151511461050d576040517f08c379a000000000000000000000000000000000000000000000000000000000815260040161050490611b35565b60405180910390fd5b610515610f4d565b60005b600481101561056f578260e00151818151811061053857610537611b55565b5b602002602001015182826004811061055357610552611b55565b5b602002018181525050808061056790611bb3565b915050610518565b5060008060009054906101000a900473ffffffffffffffffffffffffffffffffffffffff1673ffffffffffffffffffffffffffffffffffffffff1663799afa7686846040518363ffffffff1660e01b81526004016105ce929190611da4565b602060405180830381865afa1580156105eb573d6000803e3d6000fd5b505050506040513d601f19601f8201168201806040525081019061060f9190611dfb565b90507ff1af884d94e28fcbc40f458caa0f4480ed2be0ea44cd8f4a33439947b455b0638682604051610642929190611e28565b60405180910390a180156106aa576040518060400160405280600881526020017f56657269666965640000000000000000000000000000000000000000000000008152506001600088815260200190815260200160002060040190816106a89190611ff3565b505b80935050505092915050565b60006001600084815260200190815260200160002090508060060160009054906101000a900473ffffffffffffffffffffffffffffffffffffffff1673ffffffffffffffffffffffffffffffffffffffff163373ffffffffffffffffffffffffffffffffffffffff161461075f576040517f08c379a000000000000000000000000000000000000000000000000000000000815260040161075690612111565b60405180910390fd5b818160040190816107709190611ff3565b50505050565b60025481565b60008054906101000a900473ffffffffffffffffffffffffffffffffffffffff1681565b600260008154809291906107b390611bb3565b919050555060405180610120016040528060025481526020018781526020018681526020018581526020016040518060400160405280600781526020017f50656e64696e670000000000000000000000000000000000000000000000000081525081526020018481526020013373ffffffffffffffffffffffffffffffffffffffff168152602001838152602001828152506001600060025481526020019081526020016000206000820151816000015560208201518160010190816108799190611ff3565b50604082015181600201556060820151816003015560808201518160040190816108a39190611ff3565b5060a08201518160050190816108b99190611ff3565b5060c08201518160060160006101000a81548173ffffffffffffffffffffffffffffffffffffffff021916908373ffffffffffffffffffffffffffffffffffffffff16021790555060e082015181600701908051906020019061091d929190610f6f565b506101008201518160080190816109349190611ff3565b509050507f269dd9c05d39c360b94cf9d3c961169382424f00cbaf5cd71d82b5da15fb3b4d60025487878787866040516109739695949392919061217d565b60405180910390a1505050505050565b60016020528060005260406000206000915090508060000154908060010180546109ac90611a92565b80601f01602080910402602001604051908101604052809291908181526020018280546109d890611a92565b8015610a255780601f106109fa57610100808354040283529160200191610a25565b820191906000526020600020905b815481529060010190602001808311610a0857829003601f168201915b505050505090806002015490806003015490806004018054610a4690611a92565b80601f0160208091040260200160405190810160405280929190818152602001828054610a7290611a92565b8015610abf5780601f10610a9457610100808354040283529160200191610abf565b820191906000526020600020905b815481529060010190602001808311610aa257829003601f168201915b505050505090806005018054610ad490611a92565b80601f0160208091040260200160405190810160405280929190818152602001828054610b0090611a92565b8015610b4d5780601f10610b2257610100808354040283529160200191610b4d565b820191906000526020600020905b815481529060010190602001808311610b3057829003601f168201915b5050505050908060060160009054906101000a900473ffffffffffffffffffffffffffffffffffffffff1690806008018054610b8890611a92565b80601f0160208091040260200160405190810160405280929190818152602001828054610bb490611a92565b8015610c015780601f10610bd657610100808354040283529160200191610c01565b820191906000526020600020905b815481529060010190602001808311610be457829003601f168201915b5050505050905088565b610c13610fbc565b600160008381526020019081526020016000206040518061012001604052908160008201548152602001600182018054610c4c90611a92565b80601f0160208091040260200160405190810160405280929190818152602001828054610c7890611a92565b8015610cc55780601f10610c9a57610100808354040283529160200191610cc5565b820191906000526020600020905b815481529060010190602001808311610ca857829003601f168201915b505050505081526020016002820154815260200160038201548152602001600482018054610cf290611a92565b80601f0160208091040260200160405190810160405280929190818152602001828054610d1e90611a92565b8015610d6b5780601f10610d4057610100808354040283529160200191610d6b565b820191906000526020600020905b815481529060010190602001808311610d4e57829003601f168201915b50505050508152602001600582018054610d8490611a92565b80601f0160208091040260200160405190810160405280929190818152602001828054610db090611a92565b8015610dfd5780601f10610dd257610100808354040283529160200191610dfd565b820191906000526020600020905b815481529060010190602001808311610de057829003601f168201915b505050505081526020016006820160009054906101000a900473ffffffffffffffffffffffffffffffffffffffff1673ffffffffffffffffffffffffffffffffffffffff1673ffffffffffffffffffffffffffffffffffffffff16815260200160078201805480602002602001604051908101604052809291908181526020018280548015610eab57602002820191906000526020600020905b815481526020019060010190808311610e97575b50505050508152602001600882018054610ec490611a92565b80601f0160208091040260200160405190810160405280929190818152602001828054610ef090611a92565b8015610f3d5780601f10610f1257610100808354040283529160200191610f3d565b820191906000526020600020905b815481529060010190602001808311610f2057829003601f168201915b5050505050815250509050919050565b6040518060800160405280600490602082028036833780820191505090505090565b828054828255906000526020600020908101928215610fab579160200282015b82811115610faa578251825591602001919060010190610f8f565b5b509050610fb8919061101e565b5090565b604051806101200160405280600081526020016060815260200160008152602001600081526020016060815260200160608152602001600073ffffffffffffffffffffffffffffffffffffffff16815260200160608152602001606081525090565b5b8082111561103757600081600090555060010161101f565b5090565b6000604051905090565b600080fd5b600080fd5b6000819050919050565b6110628161104f565b811461106d57600080fd5b50565b60008135905061107f81611059565b92915050565b600080fd5b6000601f19601f8301169050919050565b7f4e487b7100000000000000000000000000000000000000000000000000000000600052604160045260246000fd5b6110d38261108a565b810181811067ffffffffffffffff821117156110f2576110f161109b565b5b80604052505050565b600061110561103b565b905061111182826110ca565b919050565b60006040828403121561112c5761112b611085565b5b61113660406110fb565b9050600061114684828501611070565b600083015250602061115a84828501611070565b60208301525092915050565b600080fd5b600067ffffffffffffffff8211156111865761118561109b565b5b602082029050919050565b600080fd5b60006111a96111a48461116b565b6110fb565b905080602084028301858111156111c3576111c2611191565b5b835b818110156111ec57806111d88882611070565b8452602084019350506020810190506111c5565b5050509392505050565b600082601f83011261120b5761120a611166565b5b6002611218848285611196565b91505092915050565b60006080828403121561123757611236611085565b5b61124160406110fb565b90506000611251848285016111f6565b6000830152506040611265848285016111f6565b60208301525092915050565b6000610100828403121561128857611287611085565b5b61129260606110fb565b905060006112a284828501611116565b60008301525060406112b684828501611221565b60208301525060c06112ca84828501611116565b60408301525092915050565b60008061012083850312156112ee576112ed611045565b5b60006112fc85828601611070565b925050602061130d85828601611271565b9150509250929050565b60008115159050919050565b61132c81611317565b82525050565b60006020820190506113476000830184611323565b92915050565b600080fd5b600067ffffffffffffffff82111561136d5761136c61109b565b5b6113768261108a565b9050602081019050919050565b82818337600083830152505050565b60006113a56113a084611352565b6110fb565b9050828152602081018484840111156113c1576113c061134d565b5b6113cc848285611383565b509392505050565b600082601f8301126113e9576113e8611166565b5b81356113f9848260208601611392565b91505092915050565b6000806040838503121561141957611418611045565b5b600061142785828601611070565b925050602083013567ffffffffffffffff8111156114485761144761104a565b5b611454858286016113d4565b9150509250929050565b6114678161104f565b82525050565b6000602082019050611482600083018461145e565b92915050565b600073ffffffffffffffffffffffffffffffffffffffff82169050919050565b6000819050919050565b60006114cd6114c86114c384611488565b6114a8565b611488565b9050919050565b60006114df826114b2565b9050919050565b60006114f1826114d4565b9050919050565b611501816114e6565b82525050565b600060208201905061151c60008301846114f8565b92915050565b600067ffffffffffffffff82111561153d5761153c61109b565b5b602082029050602081019050919050565b600061156161155c84611522565b6110fb565b9050808382526020820190506020840283018581111561158457611583611191565b5b835b818110156115ad57806115998882611070565b845260208401935050602081019050611586565b5050509392505050565b600082601f8301126115cc576115cb611166565b5b81356115dc84826020860161154e565b91505092915050565b60008060008060008060c0878903121561160257611601611045565b5b600087013567ffffffffffffffff8111156116205761161f61104a565b5b61162c89828a016113d4565b965050602061163d89828a01611070565b955050604061164e89828a01611070565b945050606087013567ffffffffffffffff81111561166f5761166e61104a565b5b61167b89828a016113d4565b935050608087013567ffffffffffffffff81111561169c5761169b61104a565b5b6116a889828a016115b7565b92505060a087013567ffffffffffffffff8111156116c9576116c861104a565b5b6116d589828a016113d4565b9150509295509295509295565b6000602082840312156116f8576116f7611045565b5b600061170684828501611070565b91505092915050565b600081519050919050565b600082825260208201905092915050565b60005b8381101561174957808201518184015260208101905061172e565b60008484015250505050565b60006117608261170f565b61176a818561171a565b935061177a81856020860161172b565b6117838161108a565b840191505092915050565b600061179982611488565b9050919050565b6117a98161178e565b82525050565b6000610100820190506117c5600083018b61145e565b81810360208301526117d7818a611755565b90506117e6604083018961145e565b6117f3606083018861145e565b81810360808301526118058187611755565b905081810360a08301526118198186611755565b905061182860c08301856117a0565b81810360e083015261183a8184611755565b90509998505050505050505050565b6118528161104f565b82525050565b600082825260208201905092915050565b60006118748261170f565b61187e8185611858565b935061188e81856020860161172b565b6118978161108a565b840191505092915050565b6118ab8161178e565b82525050565b600081519050919050565b600082825260208201905092915050565b6000819050602082019050919050565b60006118e98383611849565b60208301905092915050565b6000602082019050919050565b600061190d826118b1565b61191781856118bc565b9350611922836118cd565b8060005b8381101561195357815161193a88826118dd565b9750611945836118f5565b925050600181019050611926565b5085935050505092915050565b6000610120830160008301516119796000860182611849565b50602083015184820360208601526119918282611869565b91505060408301516119a66040860182611849565b5060608301516119b96060860182611849565b50608083015184820360808601526119d18282611869565b91505060a083015184820360a08601526119eb8282611869565b91505060c0830151611a0060c08601826118a2565b5060e083015184820360e0860152611a188282611902565b915050610100830151848203610100860152611a348282611869565b9150508091505092915050565b60006020820190508181036000830152611a5b8184611960565b905092915050565b7f4e487b7100000000000000000000000000000000000000000000000000000000600052602260045260246000fd5b60006002820490506001821680611aaa57607f821691505b602082108103611abd57611abc611a63565b5b50919050565b7f496e7075742076616c7565732073686f756c64206265206f66206c656e67746860008201527f2034000000000000000000000000000000000000000000000000000000000000602082015250565b6000611b1f60228361171a565b9150611b2a82611ac3565b604082019050919050565b60006020820190508181036000830152611b4e81611b12565b9050919050565b7f4e487b7100000000000000000000000000000000000000000000000000000000600052603260045260246000fd5b7f4e487b7100000000000000000000000000000000000000000000000000000000600052601160045260246000fd5b6000611bbe8261104f565b91507fffffffffffffffffffffffffffffffffffffffffffffffffffffffffffffffff8203611bf057611bef611b84565b5b600182019050919050565b604082016000820151611c116000850182611849565b506020820151611c246020850182611849565b50505050565b600060029050919050565b600081905092915050565b6000819050919050565b6000602082019050919050565b611c6081611c2a565b611c6a8184611c35565b9250611c7582611c40565b8060005b83811015611ca6578151611c8d87826118dd565b9650611c9883611c4a565b925050600181019050611c79565b505050505050565b608082016000820151611cc46000850182611c57565b506020820151611cd76040850182611c57565b50505050565b61010082016000820151611cf46000850182611bfb565b506020820151611d076040850182611cae565b506040820151611d1a60c0850182611bfb565b50505050565b600060049050919050565b600081905092915050565b6000819050919050565b6000602082019050919050565b611d5681611d20565b611d608184611d2b565b9250611d6b82611d36565b8060005b83811015611d9c578151611d8387826118dd565b9650611d8e83611d40565b925050600181019050611d6f565b505050505050565b600061018082019050611dba6000830185611cdd565b611dc8610100830184611d4d565b9392505050565b611dd881611317565b8114611de357600080fd5b50565b600081519050611df581611dcf565b92915050565b600060208284031215611e1157611e10611045565b5b6000611e1f84828501611de6565b91505092915050565b6000604082019050611e3d600083018561145e565b611e4a6020830184611323565b9392505050565b60008190508160005260206000209050919050565b60006020601f8301049050919050565b600082821b905092915050565b600060088302611eb37fffffffffffffffffffffffffffffffffffffffffffffffffffffffffffffffff82611e76565b611ebd8683611e76565b95508019841693508086168417925050509392505050565b6000611ef0611eeb611ee68461104f565b6114a8565b61104f565b9050919050565b6000819050919050565b611f0a83611ed5565b611f1e611f1682611ef7565b848454611e83565b825550505050565b600090565b611f33611f26565b611f3e818484611f01565b505050565b5b81811015611f6257611f57600082611f2b565b600181019050611f44565b5050565b601f821115611fa757611f7881611e51565b611f8184611e66565b81016020851015611f90578190505b611fa4611f9c85611e66565b830182611f43565b50505b505050565b600082821c905092915050565b6000611fca60001984600802611fac565b1980831691505092915050565b6000611fe38383611fb9565b9150826002028217905092915050565b611ffc8261170f565b67ffffffffffffffff8111156120155761201461109b565b5b61201f8254611a92565b61202a828285611f66565b600060209050601f83116001811461205d576000841561204b578287015190505b6120558582611fd7565b8655506120bd565b601f19841661206b86611e51565b60005b828110156120935784890151825560018201915060208501945060208101905061206e565b868310156120b057848901516120ac601f891682611fb9565b8355505b6001600288020188555050505b505050505050565b7f4f6e6c7920637573746f6d65722063616e20757064617465206f726465720000600082015250565b60006120fb601e8361171a565b9150612106826120c5565b602082019050919050565b6000602082019050818103600083015261212a816120ee565b9050919050565b7f50656e64696e6700000000000000000000000000000000000000000000000000600082015250565b600061216760078361171a565b915061217282612131565b602082019050919050565b600060e082019050612192600083018961145e565b81810360208301526121a48188611755565b90506121b3604083018761145e565b6121c0606083018661145e565b81810360808301526121d18161215a565b905081810360a08301526121e58185611755565b905081810360c08301526121f98184611755565b905097965050505050505056fea2646970667358221220923425908290419c80d90c88552626fda38f636a394e646febfa67e6887295e864736f6c63430008130033",
  "immutableReferences": {},
  "source": "// SPDX-License-Identifier: MIT\r\npragma solidity ^0.8.0;\r\n\r\nimport \"./Verifier.sol\"; // Verifier szlemesini ie aktar\r\n\r\ncontract OrderManagement {\r\n    Verifier public verifier; // Verifier szlemesine referans\r\n\r\n    struct Order {\r\n        uint orderId;\r\n        string product;\r\n        uint256 quantity;\r\n        uint256 totalCost;\r\n        string status;\r\n        string customerName;\r\n        address customerAddress;\r\n        uint256[] inputValues;  // Zk-SNARK kantnda kullanlacak giri deerleri\r\n        string ipfsHash; // IPFS hash'i ekle\r\n    }\r\n\r\n    mapping(uint256 => Order) public orders;\r\n    uint256 public orderCount = 0;\r\n\r\n    event OrderPlaced(uint256 orderId, string product, uint256 quantity, uint256 totalCost, string status, string customerName, string ipfsHash);\r\n    event OrderVerified(uint256 orderId, bool verified);\r\n\r\n    constructor(address verifierAddress) {\r\n        verifier = Verifier(verifierAddress); // Verifier szlemesinin adresi ile balat\r\n    }\r\n\r\n    // Sipari oluturma fonksiyonu\r\n    function placeOrder(\r\n        string memory product,\r\n        uint256 quantity,\r\n        uint256 totalCost,\r\n        string memory customerName,\r\n        uint256[] memory inputValues, // zk-SNARK kantnda kullanlacak giri deerleri\r\n        string memory ipfsHash // IPFS hash'i parametre olarak al\r\n    ) public {\r\n        orderCount++;\r\n        orders[orderCount] = Order(orderCount, product, quantity, totalCost, \"Pending\", customerName, msg.sender, inputValues, ipfsHash);\r\n        emit OrderPlaced(orderCount, product, quantity, totalCost, \"Pending\", customerName, ipfsHash);\r\n    }\r\n\r\n    // Sipari durumunu gncelleme fonksiyonu\r\n    function updateOrderStatus(uint256 orderId, string memory status) public {\r\n        Order storage order = orders[orderId];\r\n        require(msg.sender == order.customerAddress, \"Only customer can update order\");\r\n        order.status = status;\r\n    }\r\nfunction verifyOrder(uint256 orderId, Verifier.Proof memory proof) public returns (bool) {\r\n    Order memory order = orders[orderId];\r\n\r\n    // Ensure inputValues has the correct length\r\n    require(order.inputValues.length == 4, \"Input values should be of length 4\");\r\n    uint256[4] memory inputValuesArray;\r\n    for (uint256 i = 0; i < 4; i++) {\r\n        inputValuesArray[i] = order.inputValues[i];\r\n    }\r\n\r\n    // Verify the proof using the Verifier contract\r\n    bool isVerified = verifier.verifyTx(proof, inputValuesArray);\r\n\r\n    // Emit the verification result\r\n    emit OrderVerified(orderId, isVerified);\r\n\r\n    // Update the order status if verified\r\n    if (isVerified) {\r\n        orders[orderId].status = \"Verified\"; // Sipariin durumunu \"Verified\" olarak gncelle\r\n    }\r\n\r\n    return isVerified; // Return the verification result\r\n}\r\n\r\n    \r\n\r\n    // Siparii alma fonksiyonu\r\n    function getOrder(uint256 orderId) public view returns (Order memory) {\r\n        return orders[orderId];\r\n    }\r\n}",
  "sourcePath": "C:\\Users\\lenovo\\Desktop\\zkp\\contracts\\OrderManagement.sol",
  "compiler": {
    "name": "solc",
    "version": "0.8.19+commit.7dd6d404.Emscripten.clang"
  },
  "schemaVersion": "3.4.16",
  "updatedAt": "2025-01-17T08:02:25.104Z",
  "networkType": "ethereum",
  "devdoc": {
    "kind": "dev",
    "methods": {},
    "version": 1
  },
  "userdoc": {
    "kind": "user",
    "methods": {},
    "version": 1
  }
}